{
  "transactions": [
    {
      "hash": "0xfea5a4c543e39c9b12da3610bbaef567267253d5d8184a5897d6cc7eeccd617c",
      "transactionType": "CALL",
      "contractName": null,
      "contractAddress": "0x3790f29015609f7ac2d323914ee8d9e062a59bc3",
      "function": "mint(address,uint256)",
      "arguments": [
        "0x19E7E376E7C213B7E7e7e46cc70A5dD086DAff2A",
        "200000000"
      ],
      "transaction": {
        "from": "0xd1b8fa09e45a403885f3970dab026a6a33fa7ebc",
        "to": "0x3790f29015609f7ac2d323914ee8d9e062a59bc3",
        "gas": "0x127da",
        "value": "0x0",
        "input": "0x40c10f1900000000000000000000000019e7e376e7c213b7e7e7e46cc70a5dd086daff2a000000000000000000000000000000000000000000000000000000000bebc200",
        "nonce": "0x25",
        "chainId": "0x14a34"
      },
      "additionalContracts": [],
      "isFixedGasLimit": false
    },
    {
      "hash": "0xa974536a3f19de1c0a0a1fc814ded3cb4adb9bd3d46b4e4ac0db4254f6b1d500",
      "transactionType": "CALL",
      "contractName": null,
      "contractAddress": "0x3790f29015609f7ac2d323914ee8d9e062a59bc3",
      "function": "mint(address,uint256)",
      "arguments": [
        "0x1563915e194D8CfBA1943570603F7606A3115508",
        "200000000"
      ],
      "transaction": {
        "from": "0xd1b8fa09e45a403885f3970dab026a6a33fa7ebc",
        "to": "0x3790f29015609f7ac2d323914ee8d9e062a59bc3",
        "gas": "0x127da",
        "value": "0x0",
        "input": "0x40c10f190000000000000000000000001563915e194d8cfba1943570603f7606a3115508000000000000000000000000000000000000000000000000000000000bebc200",
        "nonce": "0x26",
        "chainId": "0x14a34"
      },
      "additionalContracts": [],
      "isFixedGasLimit": false
    },
    {
      "hash": "0xf5832dc9ddc5ae36d8c7076a5f81b96a57fd57cc01dd2a400fbea886e6fce047",
      "transactionType": "CALL",
      "contractName": null,
      "contractAddress": "0x3790f29015609f7ac2d323914ee8d9e062a59bc3",
      "function": "mint(address,uint256)",
      "arguments": [
        "0x5CbDd86a2FA8Dc4bDdd8a8f69dBa48572EeC07FB",
        "200000000"
      ],
      "transaction": {
        "from": "0xd1b8fa09e45a403885f3970dab026a6a33fa7ebc",
        "to": "0x3790f29015609f7ac2d323914ee8d9e062a59bc3",
        "gas": "0x127da",
        "value": "0x0",
        "input": "0x40c10f190000000000000000000000005cbdd86a2fa8dc4bddd8a8f69dba48572eec07fb000000000000000000000000000000000000000000000000000000000bebc200",
        "nonce": "0x27",
        "chainId": "0x14a34"
      },
      "additionalContracts": [],
      "isFixedGasLimit": false
    },
    {
      "hash": "0xed4188a9e7adbd9b585ab54d3710df52868cc80232d06887ecdc989cbfc6bbab",
      "transactionType": "CALL",
      "contractName": null,
      "contractAddress": "0x3790f29015609f7ac2d323914ee8d9e062a59bc3",
      "function": "approve(address,uint256)",
      "arguments": [
        "0x82B190bD47146991F1917c266b600Dd18b6D74F7",
        "100000000"
      ],
      "transaction": {
        "from": "0x19e7e376e7c213b7e7e7e46cc70a5dd086daff2a",
        "to": "0x3790f29015609f7ac2d323914ee8d9e062a59bc3",
        "gas": "0xfd00",
        "value": "0x0",
        "input": "0x095ea7b300000000000000000000000082b190bd47146991f1917c266b600dd18b6d74f70000000000000000000000000000000000000000000000000000000005f5e100",
        "nonce": "0x95",
        "chainId": "0x14a34"
      },
      "additionalContracts": [],
      "isFixedGasLimit": false
    },
    {
      "hash": "0xf56b2e4e5c7dcaed984086ec5816f7553d031c8c6bb1b782747b5a8ce388b548",
      "transactionType": "CALL",
      "contractName": null,
      "contractAddress": "0x82b190bd47146991f1917c266b600dd18b6d74f7",
      "function": "joinAsBuilder()",
      "arguments": [],
      "transaction": {
        "from": "0x19e7e376e7c213b7e7e7e46cc70a5dd086daff2a",
        "to": "0x82b190bd47146991f1917c266b600dd18b6d74f7",
        "gas": "0x37e03",
        "value": "0x0",
        "input": "0x14a35206",
        "nonce": "0x96",
        "chainId": "0x14a34"
      },
      "additionalContracts": [],
      "isFixedGasLimit": false
    },
    {
      "hash": "0x96c020b680575b976129a8184a73052148569c1837c0151e99cc77b5caec7c4a",
      "transactionType": "CALL",
      "contractName": null,
      "contractAddress": "0x3790f29015609f7ac2d323914ee8d9e062a59bc3",
      "function": "approve(address,uint256)",
      "arguments": [
        "0x82B190bD47146991F1917c266b600Dd18b6D74F7",
        "100000000"
      ],
      "transaction": {
        "from": "0x1563915e194d8cfba1943570603f7606a3115508",
        "to": "0x3790f29015609f7ac2d323914ee8d9e062a59bc3",
        "gas": "0xfd00",
        "value": "0x0",
        "input": "0x095ea7b300000000000000000000000082b190bd47146991f1917c266b600dd18b6d74f70000000000000000000000000000000000000000000000000000000005f5e100",
        "nonce": "0x68",
        "chainId": "0x14a34"
      },
      "additionalContracts": [],
      "isFixedGasLimit": false
    },
    {
      "hash": "0x6ece6eb6ced64b0831c54bc28cd1931e3ff6830ce4a8864b1bef4470a16ae6c5",
      "transactionType": "CALL",
      "contractName": null,
      "contractAddress": "0x82b190bd47146991f1917c266b600dd18b6d74f7",
      "function": "joinAsBuilder()",
      "arguments": [],
      "transaction": {
        "from": "0x1563915e194d8cfba1943570603f7606a3115508",
        "to": "0x82b190bd47146991f1917c266b600dd18b6d74f7",
        "gas": "0x2f014",
        "value": "0x0",
        "input": "0x14a35206",
        "nonce": "0x69",
        "chainId": "0x14a34"
      },
      "additionalContracts": [],
      "isFixedGasLimit": false
    },
    {
      "hash": "0xa72394b9a55183ab4bc66da3eccf01ee80e801f45f0d6c45115d2b3eca3ba109",
      "transactionType": "CALL",
      "contractName": null,
      "contractAddress": "0x3790f29015609f7ac2d323914ee8d9e062a59bc3",
      "function": "approve(address,uint256)",
      "arguments": [
        "0x82B190bD47146991F1917c266b600Dd18b6D74F7",
        "100000000"
      ],
      "transaction": {
        "from": "0x5cbdd86a2fa8dc4bddd8a8f69dba48572eec07fb",
        "to": "0x3790f29015609f7ac2d323914ee8d9e062a59bc3",
        "gas": "0xfd00",
        "value": "0x0",
        "input": "0x095ea7b300000000000000000000000082b190bd47146991f1917c266b600dd18b6d74f70000000000000000000000000000000000000000000000000000000005f5e100",
        "nonce": "0xd",
        "chainId": "0x14a34"
      },
      "additionalContracts": [],
      "isFixedGasLimit": false
    },
    {
      "hash": "0x8c21eb2c03edde041ab63dd525044a1331a573c603d0783c1d1bb9f6fb52ebd8",
      "transactionType": "CALL",
      "contractName": null,
      "contractAddress": "0x82b190bd47146991f1917c266b600dd18b6d74f7",
      "function": "joinAsBuilder()",
      "arguments": [],
      "transaction": {
        "from": "0x5cbdd86a2fa8dc4bddd8a8f69dba48572eec07fb",
        "to": "0x82b190bd47146991f1917c266b600dd18b6d74f7",
        "gas": "0x2f014",
        "value": "0x0",
        "input": "0x14a35206",
        "nonce": "0xe",
        "chainId": "0x14a34"
      },
      "additionalContracts": [],
      "isFixedGasLimit": false
    },
    {
      "hash": "0x03217f0f963672a5513d336452a4b60112801c49838bcc0e65cf650b061011d4",
      "transactionType": "CALL",
      "contractName": null,
      "contractAddress": "0x82b190bd47146991f1917c266b600dd18b6d74f7",
      "function": "vote(address[],uint256[])",
      "arguments": [
        "[0x19E7E376E7C213B7E7e7e46cc70A5dD086DAff2A, 0x1563915e194D8CfBA1943570603F7606A3115508, 0x5CbDd86a2FA8Dc4bDdd8a8f69dBa48572EeC07FB]",
        "[50, 30, 20]"
      ],
      "transaction": {
        "from": "0xd1b8fa09e45a403885f3970dab026a6a33fa7ebc",
        "to": "0x82b190bd47146991f1917c266b600dd18b6d74f7",
        "gas": "0x7522c",
        "value": "0x0",
        "input": "0x6f816a20000000000000000000000000000000000000000000000000000000000000004000000000000000000000000000000000000000000000000000000000000000c0000000000000000000000000000000000000000000000000000000000000000300000000000000000000000019e7e376e7c213b7e7e7e46cc70a5dd086daff2a0000000000000000000000001563915e194d8cfba1943570603f7606a31155080000000000000000000000005cbdd86a2fa8dc4bddd8a8f69dba48572eec07fb00000000000000000000000000000000000000000000000000000000000000030000000000000000000000000000000000000000000000000000000000000032000000000000000000000000000000000000000000000000000000000000001e0000000000000000000000000000000000000000000000000000000000000014",
        "nonce": "0x28",
        "chainId": "0x14a34"
      },
      "additionalContracts": [],
      "isFixedGasLimit": false
    },
    {
      "hash": "0x5e1926694faa529f239c70acefa9030120d3dadf8fe0494802d071c0d95a5714",
      "transactionType": "CALL",
      "contractName": null,
      "contractAddress": "0x82b190bd47146991f1917c266b600dd18b6d74f7",
      "function": "claimRewards()",
      "arguments": [],
      "transaction": {
        "from": "0x19e7e376e7c213b7e7e7e46cc70a5dd086daff2a",
        "to": "0x82b190bd47146991f1917c266b600dd18b6d74f7",
        "gas": "0xc8b2",
        "value": "0x0",
        "input": "0x372500ab",
        "nonce": "0x97",
        "chainId": "0x14a34"
      },
      "additionalContracts": [],
      "isFixedGasLimit": false
    }
  ],
  "receipts": [
    {
      "status": "0x1",
      "cumulativeGasUsed": "0x44c0d",
      "logs": [
        {
          "address": "0x3790f29015609f7ac2d323914ee8d9e062a59bc3",
          "topics": [
            "0xddf252ad1be2c89b69c2b068fc378daa952ba7f163c4a11628f55a4df523b3ef",
            "0x0000000000000000000000000000000000000000000000000000000000000000",
            "0x00000000000000000000000019e7e376e7c213b7e7e7e46cc70a5dd086daff2a"
          ],
          "data": "0x000000000000000000000000000000000000000000000000000000000bebc200",
          "blockHash": "0x1fe483344b3ba9dc64ea504c5f0caac1bf8b8b0ba06fba4ead54fe62c9e3add0",
          "blockNumber": "0x237c9a9",
          "blockTimestamp": "0x6982f232",
          "transactionHash": "0xfea5a4c543e39c9b12da3610bbaef567267253d5d8184a5897d6cc7eeccd617c",
          "transactionIndex": "0x5",
          "logIndex": "0x3",
          "removed": false
        }
      ],
      "logsBloom": "0x00000000000000000000000000000000000000000000000000000000000000000000000000080000000000000000000000000000000000000000000000000000000000000000000000000008000000000000000000000000000000000000000000000000020000000000000000000800000000000000000000000014000000000000000000000000000000000000000000000000000000000000000040000000000000000000000000000000000000001000000000000000020000000000000000000002000000000000000000000000000000000000000000000000000020000000000000000000000000000000000000000008000000000000000000000000",
      "type": "0x2",
      "transactionHash": "0xfea5a4c543e39c9b12da3610bbaef567267253d5d8184a5897d6cc7eeccd617c",
      "transactionIndex": "0x5",
      "blockHash": "0x1fe483344b3ba9dc64ea504c5f0caac1bf8b8b0ba06fba4ead54fe62c9e3add0",
      "blockNumber": "0x237c9a9",
      "gasUsed": "0xca4b",
      "effectiveGasPrice": "0x124fb3",
      "blobGasUsed": "0x79e0",
      "from": "0xd1b8fa09e45a403885f3970dab026a6a33fa7ebc",
      "to": "0x3790f29015609f7ac2d323914ee8d9e062a59bc3",
      "contractAddress": null,
      "daFootprintGasScalar": "0x138",
      "l1BaseFeeScalar": "0x44d",
      "l1BlobBaseFee": "0x75479dc2",
      "l1BlobBaseFeeScalar": "0xa118b",
      "l1Fee": "0x1ea3be11ed",
      "l1GasPrice": "0x3b9eaff4",
      "l1GasUsed": "0x640"
    },
    {
      "status": "0x1",
      "cumulativeGasUsed": "0x694fc4",
      "logs": [
        {
          "address": "0x3790f29015609f7ac2d323914ee8d9e062a59bc3",
          "topics": [
            "0xddf252ad1be2c89b69c2b068fc378daa952ba7f163c4a11628f55a4df523b3ef",
            "0x0000000000000000000000000000000000000000000000000000000000000000",
            "0x0000000000000000000000001563915e194d8cfba1943570603f7606a3115508"
          ],
          "data": "0x000000000000000000000000000000000000000000000000000000000bebc200",
          "blockHash": "0x1cb07004bc5ec1085d288a52e80d95011dd57799b36e17d07d9874d943a80aa6",
          "blockNumber": "0x237c9aa",
          "blockTimestamp": "0x6982f234",
          "transactionHash": "0xa974536a3f19de1c0a0a1fc814ded3cb4adb9bd3d46b4e4ac0db4254f6b1d500",
          "transactionIndex": "0xf",
          "logIndex": "0x21",
          "removed": false
        }
      ],
      "logsBloom": "0x00000000000000000000000000000000000000000000000000000000000000000000000000080000000000000000000000000000000000000000000000000000000000000000000000000008000000000000000000000000000000000000000000000000020000000000000000000800000000000000000000000014000000000000000000000000000000000000000000000000000000000000000000000000000000000000000000000000000080001000000000000000000000000000000000000002000000000000000000000000000000000000000000000000000020000000000000000000000000000000000000000000000000200000000000000000",
      "type": "0x2",
      "transactionHash": "0xa974536a3f19de1c0a0a1fc814ded3cb4adb9bd3d46b4e4ac0db4254f6b1d500",
      "transactionIndex": "0xf",
      "blockHash": "0x1cb07004bc5ec1085d288a52e80d95011dd57799b36e17d07d9874d943a80aa6",
      "blockNumber": "0x237c9aa",
      "gasUsed": "0xca4b",
      "effectiveGasPrice": "0x124fb3",
      "blobGasUsed": "0x79e0",
      "from": "0xd1b8fa09e45a403885f3970dab026a6a33fa7ebc",
      "to": "0x3790f29015609f7ac2d323914ee8d9e062a59bc3",
      "contractAddress": null,
      "daFootprintGasScalar": "0x138",
      "l1BaseFeeScalar": "0x44d",
      "l1BlobBaseFee": "0x75479dc2",
      "l1BlobBaseFeeScalar": "0xa118b",
      "l1Fee": "0x9093a1d85f",
      "l1GasPrice": "0x3b9eaff4",
      "l1GasUsed": "0x640"
    },
    {
      "status": "0x1",
      "cumulativeGasUsed": "0x25a6ff",
      "logs": [
        {
          "address": "0x3790f29015609f7ac2d323914ee8d9e062a59bc3",
          "topics": [
            "0xddf252ad1be2c89b69c2b068fc378daa952ba7f163c4a11628f55a4df523b3ef",
            "0x0000000000000000000000000000000000000000000000000000000000000000",
            "0x0000000000000000000000005cbdd86a2fa8dc4bddd8a8f69dba48572eec07fb"
          ],
          "data": "0x000000000000000000000000000000000000000000000000000000000bebc200",
          "blockHash": "0x2e598cf791832b34e0c63697e6e2b987b5f1b18558ea535a12acc9d9ddc3396b",
          "blockNumber": "0x237c9ab",
          "blockTimestamp": "0x6982f236",
          "transactionHash": "0xf5832dc9ddc5ae36d8c7076a5f81b96a57fd57cc01dd2a400fbea886e6fce047",
          "transactionIndex": "0x8",
          "logIndex": "0x47",
          "removed": false
        }
      ],
      "logsBloom": "0x00000000000000000000000000000000000000000000000000000000000000000000000000080000000000000000000000000000000000000000000000000000000000000000000000000008000000000000000000000000000000000000000000000000020000020000000000000800000000000000000000000014000000000000000000000000000000000000008000000000000000000000000000000000000000000000000000000000000000001000000000400000000000000000000000000002000000000000000000000000000000000000000000000000000020000000000000000000000000000000000000000000000000000000000000000000",
      "type": "0x2",
      "transactionHash": "0xf5832dc9ddc5ae36d8c7076a5f81b96a57fd57cc01dd2a400fbea886e6fce047",
      "transactionIndex": "0x8",
      "blockHash": "0x2e598cf791832b34e0c63697e6e2b987b5f1b18558ea535a12acc9d9ddc3396b",
      "blockNumber": "0x237c9ab",
      "gasUsed": "0xca4b",
      "effectiveGasPrice": "0x124fb3",
      "blobGasUsed": "0x79e0",
      "from": "0xd1b8fa09e45a403885f3970dab026a6a33fa7ebc",
      "to": "0x3790f29015609f7ac2d323914ee8d9e062a59bc3",
      "contractAddress": null,
      "daFootprintGasScalar": "0x138",
      "l1BaseFeeScalar": "0x44d",
      "l1BlobBaseFee": "0x75479dc2",
      "l1BlobBaseFeeScalar": "0xa118b",
      "l1Fee": "0x1ea3be11ed",
      "l1GasPrice": "0x3b9eaff4",
      "l1GasUsed": "0x640"
    },
    {
      "status": "0x1",
      "cumulativeGasUsed": "0x15c455",
      "logs": [
        {
          "address": "0x3790f29015609f7ac2d323914ee8d9e062a59bc3",
          "topics": [
            "0x8c5be1e5ebec7d5bd14f71427d1e84f3dd0314c0f7b2291e5b200ac8c7c3b925",
            "0x00000000000000000000000019e7e376e7c213b7e7e7e46cc70a5dd086daff2a",
            "0x00000000000000000000000082b190bd47146991f1917c266b600dd18b6d74f7"
          ],
          "data": "0x0000000000000000000000000000000000000000000000000000000005f5e100",
          "blockHash": "0xc2f6e444d12c91b15c3baf3a33f66991172744f6210cacf7a7609a87ce4977ec",
          "blockNumber": "0x237c9ac",
          "blockTimestamp": "0x6982f238",
          "transactionHash": "0xed4188a9e7adbd9b585ab54d3710df52868cc80232d06887ecdc989cbfc6bbab",
          "transactionIndex": "0x8",
          "logIndex": "0x18",
          "removed": false
        }
      ],
      "logsBloom": "0x00000000000000000000000000000000000000000000000000000000000000000000000000080000000000000000000000000000000000000000000000200000000000000000000000000000000000000000000000000000000000040000000000000000000000000000000000000000000000000000000000000004000000000000000000000000000000200000000000000000000000000000000040000000020000000000000000000000000000001000000000000000020000000000000000000000000000000000000000000000000000000000800000000000000000000010000000000000000000000000000000000008000000000000000000000000",
      "type": "0x2",
      "transactionHash": "0xed4188a9e7adbd9b585ab54d3710df52868cc80232d06887ecdc989cbfc6bbab",
      "transactionIndex": "0x8",
      "blockHash": "0xc2f6e444d12c91b15c3baf3a33f66991172744f6210cacf7a7609a87ce4977ec",
      "blockNumber": "0x237c9ac",
      "gasUsed": "0xb72c",
      "effectiveGasPrice": "0x124fb3",
      "blobGasUsed": "0x79e0",
      "from": "0x19e7e376e7c213b7e7e7e46cc70a5dd086daff2a",
      "to": "0x3790f29015609f7ac2d323914ee8d9e062a59bc3",
      "contractAddress": null,
      "daFootprintGasScalar": "0x138",
      "l1BaseFeeScalar": "0x44d",
      "l1BlobBaseFee": "0x75479dc2",
      "l1BlobBaseFeeScalar": "0xa118b",
      "l1Fee": "0x1ea3be11ed",
      "l1GasPrice": "0x3b9eaff4",
      "l1GasUsed": "0x640"
    },
    {
      "status": "0x1",
      "cumulativeGasUsed": "0x2a9c99",
      "logs": [
        {
          "address": "0x3790f29015609f7ac2d323914ee8d9e062a59bc3",
          "topics": [
            "0xddf252ad1be2c89b69c2b068fc378daa952ba7f163c4a11628f55a4df523b3ef",
            "0x00000000000000000000000019e7e376e7c213b7e7e7e46cc70a5dd086daff2a",
            "0x00000000000000000000000082b190bd47146991f1917c266b600dd18b6d74f7"
          ],
          "data": "0x0000000000000000000000000000000000000000000000000000000005f5e100",
          "blockHash": "0xaaee37c4078b09df575c307cc532820a64f2036f2515d9913d4a38a88666f572",
          "blockNumber": "0x237c9ad",
          "blockTimestamp": "0x6982f23a",
          "transactionHash": "0xf56b2e4e5c7dcaed984086ec5816f7553d031c8c6bb1b782747b5a8ce388b548",
          "transactionIndex": "0x7",
          "logIndex": "0x4f",
          "removed": false
        },
        {
          "address": "0x82b190bd47146991f1917c266b600dd18b6d74f7",
          "topics": [
            "0x2ef48bf15334fbcf095c09cfdbc612a7848b9f465e621959e85a67720d5f4aad",
            "0x00000000000000000000000019e7e376e7c213b7e7e7e46cc70a5dd086daff2a"
          ],
          "data": "0x0000000000000000000000000000000000000000000000000000000005f5e100",
          "blockHash": "0xaaee37c4078b09df575c307cc532820a64f2036f2515d9913d4a38a88666f572",
          "blockNumber": "0x237c9ad",
          "blockTimestamp": "0x6982f23a",
          "transactionHash": "0xf56b2e4e5c7dcaed984086ec5816f7553d031c8c6bb1b782747b5a8ce388b548",
          "transactionIndex": "0x7",
          "logIndex": "0x50",
          "removed": false
        }
      ],
      "logsBloom": "0x08000000000000000000000000000000000000000000000000000000000000000000000000080000000000000000000000000000000000000000000000000000010000000000000000000008000020000000000000000000000000040000000000000000000000000000000000000000000200000000000000000014000000000000000000001000000000200000000000000004000000000000000040000000000000000000000000000000000000001000000000000000020000000000000000000002000000000000000000000000000000000000800000000000000000000000000000000000000000000000000000000008000000000000000000000000",
      "type": "0x2",
      "transactionHash": "0xf56b2e4e5c7dcaed984086ec5816f7553d031c8c6bb1b782747b5a8ce388b548",
      "transactionIndex": "0x7",
      "blockHash": "0xaaee37c4078b09df575c307cc532820a64f2036f2515d9913d4a38a88666f572",
      "blockNumber": "0x237c9ad",
      "gasUsed": "0x2634b",
      "effectiveGasPrice": "0x124fb3",
      "blobGasUsed": "0x79e0",
      "from": "0x19e7e376e7c213b7e7e7e46cc70a5dd086daff2a",
      "to": "0x82b190bd47146991f1917c266b600dd18b6d74f7",
      "contractAddress": null,
      "daFootprintGasScalar": "0x138",
      "l1BaseFeeScalar": "0x44d",
      "l1BlobBaseFee": "0x7d71e5ae",
      "l1BlobBaseFeeScalar": "0xa118b",
      "l1Fee": "0x20b5803897",
      "l1GasPrice": "0x367fceaf",
      "l1GasUsed": "0x640"
    },
    {
      "status": "0x1",
      "cumulativeGasUsed": "0x397387",
      "logs": [
        {
          "address": "0x3790f29015609f7ac2d323914ee8d9e062a59bc3",
          "topics": [
            "0x8c5be1e5ebec7d5bd14f71427d1e84f3dd0314c0f7b2291e5b200ac8c7c3b925",
            "0x0000000000000000000000001563915e194d8cfba1943570603f7606a3115508",
            "0x00000000000000000000000082b190bd47146991f1917c266b600dd18b6d74f7"
          ],
          "data": "0x0000000000000000000000000000000000000000000000000000000005f5e100",
          "blockHash": "0xb757d5275d6ca35cb62d80b3aa168f6ed265dca552115e833c461f589ac1c1a8",
          "blockNumber": "0x237c9ad",
          "blockTimestamp": "0x6982f23a",
          "transactionHash": "0x96c020b680575b976129a8184a73052148569c1837c0151e99cc77b5caec7c4a",
          "transactionIndex": "0x9",
          "logIndex": "0x5b",
          "removed": false
        }
      ],
      "logsBloom": "0x00000000000000000000000000000000000000000000000000000000000000000000000000080000000000000000000000000000000000000000000000200000000000000000000000000000000000000000000000000000000000040000000000000000000000000000000000000000000000000000000000000004000000000000000000000000000000200000000000000000000000000000000000000000020000000000000000000000000080001000000000000000000000000000000000000000000000000000000000000000000000000000800000000000000000000010000000000000000000000000000000000000000000200000000000000000",
      "type": "0x2",
      "transactionHash": "0x96c020b680575b976129a8184a73052148569c1837c0151e99cc77b5caec7c4a",
      "transactionIndex": "0x9",
      "blockHash": "0xb757d5275d6ca35cb62d80b3aa168f6ed265dca552115e833c461f589ac1c1a8",
      "blockNumber": "0x237c9ad",
      "gasUsed": "0xb72c",
      "effectiveGasPrice": "0x124fb3",
      "blobGasUsed": "0x79e0",
      "from": "0x1563915e194d8cfba1943570603f7606a3115508",
      "to": "0x3790f29015609f7ac2d323914ee8d9e062a59bc3",
      "contractAddress": null,
      "daFootprintGasScalar": "0x138",
      "l1BaseFeeScalar": "0x44d",
      "l1BlobBaseFee": "0x7d71e5ae",
      "l1BlobBaseFeeScalar": "0xa118b",
      "l1Fee": "0x940c572fc4",
      "l1GasPrice": "0x367fceaf",
      "l1GasUsed": "0x640"
    },
    {
      "status": "0x1",
      "cumulativeGasUsed": "0x7fc018",
      "logs": [
        {
          "address": "0x3790f29015609f7ac2d323914ee8d9e062a59bc3",
          "topics": [
            "0xddf252ad1be2c89b69c2b068fc378daa952ba7f163c4a11628f55a4df523b3ef",
            "0x0000000000000000000000001563915e194d8cfba1943570603f7606a3115508",
            "0x00000000000000000000000082b190bd47146991f1917c266b600dd18b6d74f7"
          ],
          "data": "0x0000000000000000000000000000000000000000000000000000000005f5e100",
          "blockHash": "0x7407dc02ef4ea7f378a3a1899da38bc61d276702495082b7db448c65e7a6cbaf",
          "blockNumber": "0x237c9ae",
          "blockTimestamp": "0x6982f23c",
          "transactionHash": "0x6ece6eb6ced64b0831c54bc28cd1931e3ff6830ce4a8864b1bef4470a16ae6c5",
          "transactionIndex": "0x8",
          "logIndex": "0x16",
          "removed": false
        },
        {
          "address": "0x82b190bd47146991f1917c266b600dd18b6d74f7",
          "topics": [
            "0x2ef48bf15334fbcf095c09cfdbc612a7848b9f465e621959e85a67720d5f4aad",
            "0x0000000000000000000000001563915e194d8cfba1943570603f7606a3115508"
          ],
          "data": "0x0000000000000000000000000000000000000000000000000000000005f5e100",
          "blockHash": "0x7407dc02ef4ea7f378a3a1899da38bc61d276702495082b7db448c65e7a6cbaf",
          "blockNumber": "0x237c9ae",
          "blockTimestamp": "0x6982f23c",
          "transactionHash": "0x6ece6eb6ced64b0831c54bc28cd1931e3ff6830ce4a8864b1bef4470a16ae6c5",
          "transactionIndex": "0x8",
          "logIndex": "0x17",
          "removed": false
        }
      ],
      "logsBloom": "0x08000000000000000000000000000000000000000000000000000000000000000000000000080000000000000000000000000000000000000000000000000000010000000000000000000008000020000000000000000000000000040000000000000000000000000000000000000000000200000000000000000014000000000000000000001000000000200000000000000004000000000000000000000000000000000000000000000000000080001000000000000000000000000000000000000002000000000000000000000000000000000000800000000000000000000000000000000000000000000000000000000000000000200000000000000000",
      "type": "0x2",
      "transactionHash": "0x6ece6eb6ced64b0831c54bc28cd1931e3ff6830ce4a8864b1bef4470a16ae6c5",
      "transactionIndex": "0x8",
      "blockHash": "0x7407dc02ef4ea7f378a3a1899da38bc61d276702495082b7db448c65e7a6cbaf",
      "blockNumber": "0x237c9ae",
      "gasUsed": "0x2207f",
      "effectiveGasPrice": "0x124fb3",
      "blobGasUsed": "0x79e0",
      "from": "0x1563915e194d8cfba1943570603f7606a3115508",
      "to": "0x82b190bd47146991f1917c266b600dd18b6d74f7",
      "contractAddress": null,
      "daFootprintGasScalar": "0x138",
      "l1BaseFeeScalar": "0x44d",
      "l1BlobBaseFee": "0x7d71e5ae",
      "l1BlobBaseFeeScalar": "0xa118b",
      "l1Fee": "0x20b5803897",
      "l1GasPrice": "0x367fceaf",
      "l1GasUsed": "0x640"
    },
    {
      "status": "0x1",
      "cumulativeGasUsed": "0x12c4dd",
      "logs": [
        {
          "address": "0x3790f29015609f7ac2d323914ee8d9e062a59bc3",
          "topics": [
            "0x8c5be1e5ebec7d5bd14f71427d1e84f3dd0314c0f7b2291e5b200ac8c7c3b925",
            "0x0000000000000000000000005cbdd86a2fa8dc4bddd8a8f69dba48572eec07fb",
            "0x00000000000000000000000082b190bd47146991f1917c266b600dd18b6d74f7"
          ],
          "data": "0x0000000000000000000000000000000000000000000000000000000005f5e100",
          "blockHash": "0xda6f2d5594575ea673e63cc75e477a049b6ed4a99f7136b5368c1a89d478fce3",
          "blockNumber": "0x237c9af",
          "blockTimestamp": "0x6982f23e",
          "transactionHash": "0xa72394b9a55183ab4bc66da3eccf01ee80e801f45f0d6c45115d2b3eca3ba109",
          "transactionIndex": "0x7",
          "logIndex": "0xe",
          "removed": false
        }
      ],
      "logsBloom": "0x00000000000000000000000000000000000000000000000000000000000000000000000000080000000000000000000000000000000000000000000000200000000000000000000000000000000000000000000000000000000000040000000000000000000000020000000000000000000000000000000000000004000000000000000000000000000000200000008000000000000000000000000000000000020000000000000000000000000000001000000000400000000000000000000000000000000000000000000000000000000000000000800000000000000000000010000000000000000000000000000000000000000000000000000000000000",
      "type": "0x2",
      "transactionHash": "0xa72394b9a55183ab4bc66da3eccf01ee80e801f45f0d6c45115d2b3eca3ba109",
      "transactionIndex": "0x7",
      "blockHash": "0xda6f2d5594575ea673e63cc75e477a049b6ed4a99f7136b5368c1a89d478fce3",
      "blockNumber": "0x237c9af",
      "gasUsed": "0xb72c",
      "effectiveGasPrice": "0x124fb3",
      "blobGasUsed": "0x79e0",
      "from": "0x5cbdd86a2fa8dc4bddd8a8f69dba48572eec07fb",
      "to": "0x3790f29015609f7ac2d323914ee8d9e062a59bc3",
      "contractAddress": null,
      "daFootprintGasScalar": "0x138",
      "l1BaseFeeScalar": "0x44d",
      "l1BlobBaseFee": "0x7d71e5ae",
      "l1BlobBaseFeeScalar": "0xa118b",
      "l1Fee": "0x20b5803897",
      "l1GasPrice": "0x367fceaf",
      "l1GasUsed": "0x640"
    },
    {
      "status": "0x1",
      "cumulativeGasUsed": "0x55cd37",
      "logs": [
        {
          "address": "0x3790f29015609f7ac2d323914ee8d9e062a59bc3",
          "topics": [
            "0xddf252ad1be2c89b69c2b068fc378daa952ba7f163c4a11628f55a4df523b3ef",
            "0x0000000000000000000000005cbdd86a2fa8dc4bddd8a8f69dba48572eec07fb",
            "0x00000000000000000000000082b190bd47146991f1917c266b600dd18b6d74f7"
          ],
          "data": "0x0000000000000000000000000000000000000000000000000000000005f5e100",
          "blockHash": "0xe4a33ddc48abd810f7337987433fbc56a7d43f18d52fdf7df4cb0fd07aa903a2",
          "blockNumber": "0x237c9b0",
          "blockTimestamp": "0x6982f240",
          "transactionHash": "0x8c21eb2c03edde041ab63dd525044a1331a573c603d0783c1d1bb9f6fb52ebd8",
          "transactionIndex": "0x4",
          "logIndex": "0x37",
          "removed": false
        },
        {
          "address": "0x82b190bd47146991f1917c266b600dd18b6d74f7",
          "topics": [
            "0x2ef48bf15334fbcf095c09cfdbc612a7848b9f465e621959e85a67720d5f4aad",
            "0x0000000000000000000000005cbdd86a2fa8dc4bddd8a8f69dba48572eec07fb"
          ],
          "data": "0x0000000000000000000000000000000000000000000000000000000005f5e100",
          "blockHash": "0xe4a33ddc48abd810f7337987433fbc56a7d43f18d52fdf7df4cb0fd07aa903a2",
          "blockNumber": "0x237c9b0",
          "blockTimestamp": "0x6982f240",
          "transactionHash": "0x8c21eb2c03edde041ab63dd525044a1331a573c603d0783c1d1bb9f6fb52ebd8",
          "transactionIndex": "0x4",
          "logIndex": "0x38",
          "removed": false
        }
      ],
      "logsBloom": "0x08000000000000000000000000000000000000000000000000000000000000000000000000080000000000000000000000000000000000000000000000000000010000000000000000000008000020000000000000000000000000040000000000000000000000020000000000000000000200000000000000000014000000000000000000001000000000200000008000000004000000000000000000000000000000000000000000000000000000001000000000400000000000000000000000000002000000000000000000000000000000000000800000000000000000000000000000000000000000000000000000000000000000000000000000000000",
      "type": "0x2",
      "transactionHash": "0x8c21eb2c03edde041ab63dd525044a1331a573c603d0783c1d1bb9f6fb52ebd8",
      "transactionIndex": "0x4",
      "blockHash": "0xe4a33ddc48abd810f7337987433fbc56a7d43f18d52fdf7df4cb0fd07aa903a2",
      "blockNumber": "0x237c9b0",
      "gasUsed": "0x2207f",
      "effectiveGasPrice": "0x124fb3",
      "blobGasUsed": "0x79e0",
      "from": "0x5cbdd86a2fa8dc4bddd8a8f69dba48572eec07fb",
      "to": "0x82b190bd47146991f1917c266b600dd18b6d74f7",
      "contractAddress": null,
      "daFootprintGasScalar": "0x138",
      "l1BaseFeeScalar": "0x44d",
      "l1BlobBaseFee": "0x7d71e5ae",
      "l1BlobBaseFeeScalar": "0xa118b",
      "l1Fee": "0x20b5803897",
      "l1GasPrice": "0x367fceaf",
      "l1GasUsed": "0x640"
    },
    {
      "status": "0x1",
      "cumulativeGasUsed": "0x5bcf07",
      "logs": [
        {
          "address": "0x82b190bd47146991f1917c266b600dd18b6d74f7",
          "topics": [
            "0xebc5cdd68c212b90840af26920449bb7b06c4beae2d1403ec0b965c2a41a7f69",
            "0x000000000000000000000000d1b8fa09e45a403885f3970dab026a6a33fa7ebc"
          ],
          "data": "0x000000000000000000000000000000000000000000000000000000000000004000000000000000000000000000000000000000000000000000000000000000c0000000000000000000000000000000000000000000000000000000000000000300000000000000000000000019e7e376e7c213b7e7e7e46cc70a5dd086daff2a0000000000000000000000001563915e194d8cfba1943570603f7606a31155080000000000000000000000005cbdd86a2fa8dc4bddd8a8f69dba48572eec07fb00000000000000000000000000000000000000000000000000000000000000030000000000000000000000000000000000000000000000000000000000000032000000000000000000000000000000000000000000000000000000000000001e0000000000000000000000000000000000000000000000000000000000000014",
          "blockHash": "0xcc317257c6596173b23704c3e8d2f0b4e191de4043180e7e2f340d786c0ce21e",
          "blockNumber": "0x237c9b0",
          "blockTimestamp": "0x6982f240",
          "transactionHash": "0x03217f0f963672a5513d336452a4b60112801c49838bcc0e65cf650b061011d4",
          "transactionIndex": "0x6",
          "logIndex": "0x3a",
          "removed": false
        }
      ],
      "logsBloom": "0x00000000000000000000000000000000000000000000000000000000000000000000000000000000000000000000000000000000000000000000000000000000000000000000000000000000000020000000000000000000000000000000000000000000000000000000000000000000000200000000000000000000000000000000000000101000000000000000000000000080000000000000000000000000000000000000000000000000200000000000010000000000000000000000000000000000000000000000000001000000000000000000000000000000000000000000000000000000000000000000100000000000000000000000000000000000",
      "type": "0x2",
      "transactionHash": "0x03217f0f963672a5513d336452a4b60112801c49838bcc0e65cf650b061011d4",
      "transactionIndex": "0x6",
      "blockHash": "0xcc317257c6596173b23704c3e8d2f0b4e191de4043180e7e2f340d786c0ce21e",
      "blockNumber": "0x237c9b0",
      "gasUsed": "0x54cdf",
      "effectiveGasPrice": "0x124fb3",
      "blobGasUsed": "0xc300",
      "from": "0xd1b8fa09e45a403885f3970dab026a6a33fa7ebc",
      "to": "0x82b190bd47146991f1917c266b600dd18b6d74f7",
      "contractAddress": null,
      "daFootprintGasScalar": "0x138",
      "l1BaseFeeScalar": "0x44d",
      "l1BlobBaseFee": "0x7d71e5ae",
      "l1BlobBaseFeeScalar": "0xa118b",
      "l1Fee": "0x348ede2521",
      "l1GasPrice": "0x367fceaf",
      "l1GasUsed": "0xa0a"
    },
    {
      "status": "0x1",
      "cumulativeGasUsed": "0x67bc2b",
      "logs": [],
      "logsBloom": "0x00000000000000000000000000000000000000000000000000000000000000000000000000000000000000000000000000000000000000000000000000000000000000000000000000000000000000000000000000000000000000000000000000000000000000000000000000000000000000000000000000000000000000000000000000000000000000000000000000000000000000000000000000000000000000000000000000000000000000000000000000000000000000000000000000000000000000000000000000000000000000000000000000000000000000000000000000000000000000000000000000000000000000000000000000000000",
      "type": "0x2",
      "transactionHash": "0x5e1926694faa529f239c70acefa9030120d3dadf8fe0494802d071c0d95a5714",
      "transactionIndex": "0x9",
      "blockHash": "0x9b2039e4a65d74b874431f46b1049f9841ad576297b3a50c046735c0ce657694",
      "blockNumber": "0x237c9b0",
      "gasUsed": "0x893b",
      "effectiveGasPrice": "0x124fb3",
      "blobGasUsed": "0x79e0",
      "from": "0x19e7e376e7c213b7e7e7e46cc70a5dd086daff2a",
      "to": "0x82b190bd47146991f1917c266b600dd18b6d74f7",
      "contractAddress": null,
      "daFootprintGasScalar": "0x138",
      "l1BaseFeeScalar": "0x44d",
      "l1BlobBaseFee": "0x7d71e5ae",
      "l1BlobBaseFeeScalar": "0xa118b",
      "l1Fee": "0x1171b93b00f",
      "l1GasPrice": "0x367fceaf",
      "l1GasUsed": "0x640"
    }
  ],
  "libraries": [],
  "pending": [],
  "returns": {},
  "timestamp": 1770189375890,
  "chain": 84532,
  "commit": "02809ca"
}